S0130000456D6265646465644750532E737265631D
S2140800003009002055010800510108005101080078
S21408001051010800510108005101080000000000C5
S2140800200000000000000000000000005101080069
S21408003051010800000000005101080051010800A5
S214080040510108005101080051010800510108003B
S214080050510108005101080051010800510108002B
S214080060E1030800510108000000000051010800E3
S2140800705101080051010800510108000000000065
S2140800800000000051010800510108005101080055
S21408009051010800510108005101080051010800EB
S2140800A05101080000000000510108005101080035
S2140800B051010800510108005101080051010800CB
S2140800C051010800510108005101080051010800BB
S2140800D051010800510108005101080051010800AB
S2140800E0510108005101080051010800510108009B
S2140800F05101080010B5054C237833B9044B13B1E9
S2140801000448AFF300800123237010BD300400209C
S2140801100000000044090800084B10B51BB1084948
S2140801200848AFF300800848036803B910BD074BBA
S214080130002BFBD0BDE81040184700BF00000000A9
S21408014034040020440908004409080000000000A0
S214080150FEE700BF08B51A4B1A4A9A4203D01A4B54
S214080160174A9A4204D3194B194A9A420FD31AE0EF
S2140801701349184B5B1A23F003030433114A13443C
S21408018052F8040B41F8040B9A42F9D1EBE7124BEC
S214080190124AD21A22F003021A44043B002143F8FA
S2140801A0041B9342FBD10E4B23F0604323F07F03DE
S2140801B00C4A93600C4B98470C4B9847FEE700BFD9
S2140801C00000002044090800300400203005002004
S2140801D0300400202F0400203404002033050020BB
S2140801E00000080000ED00E055050800C5020800FC
S2140801F04FF48063204A136002F5007213601F4BA9
S2140802001B6A13F0807F07D11D4A1C4B1A621A46D8
S214080210936E13F0010FFBD01A4A184B1A621A464F
S214080220936E13F4803FFBD0144A136B23F003033A
S21408023043F001031363936E13F0080FFBD0124AC2
S2140802400E4B9A621A46936E13F0020FFBD01122D9
S2140802500A4B1A631A46936E13F0080FFBD0122245
S214080260064B1A631A46936E13F0080FFBD0074A1C
S214080270074B1A60704700BF000A0E4000060E4083
S2140802800908370009083701013F0D2000BD0105A0
S2140802900000002008B5064B98474FF40042054B6F
S2140802A05A60054B9847054B9847054B984708BD35
S2140802B0F1010800501A0E404D040800F504080025
S2140802C08D04080080B50A4B98470A480A4B984799
S2140802D00A4F094E0A4D0B4C2846B847B047A04768
S2140802E00028F9D0084B9847084B9847F4E700BF12
S2140802F09502080008090800B90408005903080010
S214080300100908003D040800D50408001904080070
S21408031008B5034B9847C0B2024B187008BD00BF1B
S2140803203D050800BC040020044A11684B1C1360F5
S214080330034A50540021D154704700BFB804002027
S214080340540400200023024A1360024A13707047C0
S214080350B8040020540400202DE9F8438146174BC2
S2140803609847174E174D184FDFF87080B0472B7810
S214080370242BFBD12420B8470524C047C0B2B84771
S214080380013CFAD149461148114B984748B90C4EDA
S2140803900C4C0D4DB0472078A84723780A2BF9D186
S2140803A002E0064B9847E1E70A4C084920460A4B04
S2140803B09847024B98472046BDE8F883450308004F
S2140803C011030800BC040020290308005404002078
S2140803D0A5050800C0040020610708003D050800C0
S2140803E00A4B1B687BB9094A536809498869094951
S2140803F0C854013353600A2B07D1134601221A60EA
S21408040000225A607047024B9B6970474C040020D4
S21408041000080E402405002010B4064B03F10B0418
S21408042000220548114603F8012B0160A342FAD1C1
S21408043010BC7047240500204C040020024B1868A6
S214080440003018BF012070474C04002008B50D4B3B
S2140804501A6F22F440721A674FF440725A604FF4CB
S2140804608072A3F500631A6103F5007340F2222236
S2140804701A6250221A604FF400625A60024B98477C
S21408048008BD00BF000E0E40190408000122034BE9
S2140804909A604FF48072024B1A60704700080E404C
S2140804A000E100E0034A536913F0020FFBD0014B4A
S2140804B0D861704700080E4038B50446007828B161
S2140804C0034DA84714F8010F0028FAD138BD00BF1D
S2140804D0A504080038B5054B187830B11C46044DFD
S2140804E0A84714F8010F0028FAD138BD24050020C3
S2140804F0A50408000E4A136943F4003313610D4B34
S2140805005A6842F440625A601A6942F400621A61F4
S2140805101A6F22F440621A67074B10221A604FF4CB
S2140805200C625A6040F223221A6201229A607047CF
S21408053000060E40000E0E4000800940044A53692B
S21408054013F0010FFBD0024B9869C0B2704700BF8A
S2140805500080094070B50F4E0F4D761BB61018BFB9
S214080560002405D0013455F8043B9847A642F9D133
S2140805700A4E0B4D00F0D4F9761BB61018BF0024AF
S21408058006D0013455F8043B9847A642F9D170BD09
S21408059070BD00BF2C0908002C09080034090800A3
S2140805A02C09080080EA010C1CF0030F37D110F064
S2140805B0030C20F0030021F0030150F8042B08BFB9
S2140805C051F8043B0ED08CF0030C6FF07F434FEAD3
S2140805D0CC0C23FA0CFC51F8043B42EA0C0243EA22
S2140805E00C0300BFA2F1013C9A4201BF2CEA020CA0
S2140805F01CF0803F50F8042B51F8043BF2D04FEA29
S21408060002604FEA1222012828BFB0EB036F08BF2A
S2140806101B0AF4D003F0FF03000EC01A704710F050
S214080620030F0AD010F8012B11F8013B012A28BF46
S2140806309A42F4D0A2EB030070474DF8045D50F8D8
S214080640042B01F0030521F0030151F8043B022DA9
S21408065026D04DD822F07F45B5EB132FA2F1013CEA
S2140806602CEA020C0DD11CF0803C08BF51F8043B64
S2140806700AD185EA0205B5EB036F0CD150F8042BB6
S214080680E8E74FEA13235BE03CF07F4C54D10B7845
S2140806904FEA126554E04FEA126503F0FF034FE095
S2140806A04FEA0245A2F1013C4FEA15452CEA020C36
S2140806B0B5EB134F18D11CF0803C08BF51F8043B2B
S2140806C007D185EA0205B5EB034F09D150F8042B8C
S2140806D0E6E75FEA0C4C2FD10B884FEA12452FE06D
S2140806E04FEA03434FEA12454FEA134328E000BF98
S2140806F002F0FF05B5EB136FA2F1013C2CEA020CE1
S2140807000DD11CF0803C08BF51F8043B0AD185EA9D
S2140807100205B5EB032F0AD150F8042BE8E74FEA99
S21408072013630DE012F0FF0F06D051F8043B4FEAB2
S214080730122523F07F4303E04FF0000020BC7047EB
S21408074005F0FF0203F0FF00012828BF904204BF0F
S2140807502D0A1B0AF4D0A2EB000020BC704700BF8D
S21408076080EA0102844612F0030F4FD111F0030FFE
S21408077032D14DF8044D11F0040F51F8043B0BD05C
S214080780A3F101329A4312F0803F04BF4CF8043BB1
S21408079051F8043B16D100BF51F8044BA3F10132BF
S2140807A09A4312F0803FA4F101320BD14CF8043B77
S2140807B0A24312F0803F04BF51F8043B4CF8044BA8
S2140807C0EAD023460CF8013B13F0FF0F4FEA332319
S2140807D0F8D15DF8044B704711F0010F06D011F8F8
S2140807E0012B0CF8012B002A08BF704711F0020FE6
S2140807F0BFD031F8022B12F0FF0F16BF2CF8022BD1
S2140808008CF8002012F47F4FB3D1704711F8012BF3
S2140808100CF8012B002AF9D1704700BF024B13B120
S214080820024800F005B87047000000003D080800C0
S214080830002301461A46184600F014B838B5074D86
S214080840074C2C1BA41005D0013C55F8043D9847CE
S214080850002CF9D1BDE8384000F06CB8440908000F
S214080860400908002DE9F047254C064625688846C5
S214080870D5F8484192469946C4B360681F2817DCE5
S214080880411C76B104EB8003C3F888A0D4F88851DD
S214080890012282401543022EC4F88851C3F80891F5
S2140808A01ED0831C6160002044F82380BDE8F087D2
S2140808B0144B03B34FF4C870AFF300800446D0B1AE
S2140808C0D5F84831002784E888003846C5F84841F6
S2140808D00121C4F88871C4F88C71002EE1D0D1E7E4
S2140808E0D4F88C311A43C4F88C21DAE705F5A674D7
S2140808F0C5F84841C1E74FF0FF30BDE8F08700BFB4
S2140809001C0908000000000041515549210A000052
S214080910244750524D4300004300000008000020C2
S214080920F8B500BFF8BC08BC9E4670471D0808000E
S21408093019010800F8B500BFF8BC08BC9E46704709
S208080940F5000800A9
S21408094400093D000000000000000000F40200203A
S2140809545C030020C4030020000000000000000020
S2140809640000000000000000000000000000000076
S214080974000000000000000000000000180908003D
S2140809840000000000000000000000000000000056
S2140809940000000000000000000000000000000046
S2140809A40000000000000000000000000000000036
S2140809B40000000000000000000000000000000026
S2140809C40000000000000000000000000000000016
S2140809D40000000000000000000000000000000006
S2140809E400000000000000000000000000000000F6
S2140809F401000000000000000E33CDAB34126DE693
S214080A04ECDE05000B0000000000000000000000FB
S214080A1400000000000000000000000000000000C5
S214080A2400000000000000000000000000000000B5
S214080A3400000000000000000000000000000000A5
S214080A440000000000000000000000000000000095
S804080000F3
